:020000040800F2
:1000000000C00020414000085D3F0008653F000837
:100010006D3F0008753F00087D3F000800000000AC
:10002000000000000000000000000000853F000804
:10003000913F0008000000009D3F0008A93F000814
:10004000894000088940000889400008894000086C
:10005000894000088940000889400008894000085C
:10006000894000088940000889400008894000084C
:10007000894000088940000889400008894000083C
:10008000894000088940000889400008894000082C
:10009000B53F0008894000088940000889400008F1
:1000A000894000088940000889400008894000080C
:1000B00089400008894000088940000889400008FC
:1000C00089400008894000088940000889400008EC
:1000D00089400008894000088940000889400008DC
:1000E00089400008894000088940000889400008CC
:1000F00089400008894000088940000889400008BC
:1001000089400008894000088940000889400008AB
:100110008940000889400008C93F0008894000085C
:10012000894000088940000889400008894000088B
:1001300000000000000000000000000000000000BF
:1001400000000000000000000000000000000000AF
:10015000000000000000000000000000000000009F
:10016000000000000000000000000000000000008F
:10017000000000000000000000000000000000007F
:10018000000000000000000000000000000000006F
:10019000000000000000000000000000000000005F
:1001A000000000000000000000000000000000004F
:1001B000000000000000000000000000000000003F
:1001C000000000000000000000000000000000002F
:1001D000000000000000000000000000000000001F
:0401E0005FF8E0F1F3
:1001E4004FF0FF0C1CEAD0521EBF1CEAD15392EA16
:1001F4000C0F93EA0C0F6FD01A4480EA010C4002F2
:1002040018BF5FEA41211ED04FF0006343EA50104B
:1002140043EA5111A0FB01310CF00040B1F5000F8D
:100224003EBF490041EAD3715B0040EA010062F13C
:100234007F02FD2A1DD8B3F1004F40EBC25008BF26
:1002440020F00100704790F0000F0CF0004C08BF44
:1002540049024CEA502040EA51207F3AC2BFD2F111
:10026400FF0340EAC250704740F400004FF000031F
:10027400013A5DDC12F1190FDCBF00F00040704759
:10028400C2F10002410021FA02F1C2F1200200FA97
:1002940002FC5FEA310040F1000053EA4C0308BF5E
:1002A40020EADC70704792F0000F00F0004C02BFAF
:1002B400400010F4000F013AF9D040EA0C0093F02A
:1002C400000F01F0004C02BF490011F4000F013B84
:1002D400F9D041EA0C018FE70CEAD15392EA0C0FF2
:1002E40018BF93EA0C0F0AD030F0004C18BF31F05D
:1002F400004CD8D180EA010000F00040704790F033
:10030400000F17BF90F0004F084691F0000F91F0D6
:10031400004F14D092EA0C0F01D142020FD193EA9C
:100324000C0F03D14B0218BF084608D180EA010024
:1003340000F0004040F0FE4040F40000704740F000
:10034400FE4040F44000704780F0004002E000BFEF
:1003540081F0004142001FBF5FEA410392EA030FAC
:100364007FEA226C7FEA236C6AD04FEA1262D2EBF6
:100374001363C1BFD218414048404140B8BF5B42FB
:10038400192B88BF704710F0004F40F4000020F094
:100394007F4018BF404211F0004F41F4000121F0AA
:1003A4007F4118BF494292EA030F3FD0A2F10102F4
:1003B40041FA03FC10EB0C00C3F1200301FA03F132
:1003C40000F0004302D5494260EB4000B0F5000F55
:1003D40013D3B0F1807F06D340084FEA310102F114
:1003E4000102FE2A51D2B1F1004F40EBC25008BFC6
:1003F40020F0010040EA03007047490040EB000090
:10040400013A28BFB0F5000FEDD2B0FA80FCACF190
:10041400080CB2EB0C0200FA0CF0AABF00EBC250BD
:1004240052421843BCBFD0401843704792F0000FAB
:1004340081F4000106BF80F400000132013BB5E7FE
:100444004FEA41037FEA226C18BF7FEA236C21D074
:1004540092EA030F04D092F0000F08BF08467047D9
:1004640090EA010F1CBF0020704712F07F4F04D1A7
:10047400400028BF40F00040704712F100723CBFBA
:1004840000F50000704700F0004343F0FE4040F4E4
:10049400000070477FEA226216BF08467FEA2363A2
:1004A4000146420206BF5FEA412390EA010F40F48D
:1004B400800070474FF0000304E000BF10F00043D9
:1004C40048BF40425FEA000C08BF704743F09643C0
:1004D40001464FF000001CE050EA010208BF7047DB
:1004E4004FF000030AE000BF50EA010208BF704762
:1004F40011F0004302D5404261EB41015FEA010C77
:1005040002BF84460146002043F0B64308BFA3F16E
:100514008053A3F50003BCFA8CF2083AA3EBC25350
:1005240010DB01FA02FC634400FA02FCC2F120026F
:10053400BCF1004F20FA02F243EB020008BF20F0A6
:100544000100704702F1200201FA02FCC2F120020C
:1005540050EA4C0021FA02F243EB020008BF20EA01
:10056400DC7070474FF0FF3C06E000BF4FF0010C19
:1005740002E000BF4FF0010C4DF804CD4FEA4002F9
:100584004FEA41037FEA226C18BF7FEA236C11D043
:1005940001B052EA530C18BF90EA010F58BFB2EBF6
:1005A400030088BFC81738BF6FEAE17018BF40F076
:1005B400010070477FEA226C02D15FEA402C05D12A
:1005C4007FEA236CE4D15FEA412CE1D05DF8040BAF
:1005D400704700BF844608466146FFE70FB5FFF742
:1005E400C9FF002848BF10F1000F0FBD4DF808EDFA
:1005F400FFF7F4FF0CBF012000205DF808FB00BFEB
:100604004DF808EDFFF7EAFF34BF012000205DF844
:1006140008FB00BF4DF808EDFFF7E0FF94BF012091
:1006240000205DF808FB00BF4DF808EDFFF7D2FF8E
:1006340094BF012000205DF808FB00BF4DF808EDD1
:10064400FFF7C8FF34BF012000205DF808FB00BF9E
:100654004FEA4002B2F1FE4F0FD34FF09E03B3EBCB
:1006640012620DD94FEA002343F0004310F0004F0B
:1006740023FA02F018BF404270474FF00000704761
:1006840012F1610F01D1420205D110F0004008BF00
:100694006FF0004070474FF00000704742000ED2E8
:1006A400B2F1FE4F0BD34FF09E03B3EB126209D4A9
:1006B4004FEA002343F0004323FA02F070474FF05F
:1006C4000000704712F1610F01D1420202D14FF0D4
:1006D400FF3070474FF00000704700BF10B5054C65
:1006E400237833B9044B13B10448AFF300800123DA
:1006F400237010BD3C00002000000000D05500080D
:1007040008B5034B1BB103490348AFF3008008BD90
:100714000000000040000020D055000803460244B9
:10072400934200D1704703F8011BF9E770B5002626
:100734000C4D0D4C641BA410A64209D104F046FFD5
:1007440000260A4D0A4C641BA410A64205D170BDB4
:1007540055F8043B98470136EEE755F8043B9847B3
:100764000136F2E77056000870560008705600080B
:100774007456000880B400AF00BFBD4680BC70470B
:1007840080B584B000AF78607B68002B01D1012371
:10079400EDE07B6893F82030DBB2002B02D178685F
:1007A40002F008FF7B681B681A687B681B6842F0CC
:1007B40001021A6000F0D0FDF86012E000F0CCFDF8
:1007C4000246FB68D31A0A2B0BD97B685B6A43F495
:1007D40000327B685A627B68052283F8202001235B
:1007E400C5E07B681B685B6803F00103002BE5D060
:1007F4007B681B681A687B681B6822F002021A6017
:1008040000F0AAFDF86012E000F0A6FD0246FB68C5
:10081400D31A0A2B0BD97B685B6A43F400327B68DA
:100824005A627B68052283F8202001239FE07B68BD
:100834001B685B6803F00203002BE5D17B681B7E19
:10084400012B08D17B681B681A687B681B6842F01F
:1008540080021A6007E07B681B681A687B681B6863
:1008640022F080021A607B685B7E012B08D17B68D2
:100874001B681A687B681B6842F040021A6007E034
:100884007B681B681A687B681B6822F040021A6048
:100894007B689B7E012B08D17B681B681A687B6888
:1008A4001B6842F020021A6007E07B681B681A6824
:1008B4007B681B6822F020021A607B68DB7E012BB8
:1008C40008D17B681B681A687B681B6822F01002D9
:1008D4001A6007E07B681B681A687B681B6842F033
:1008E40010021A607B681B7F012B08D17B681B6890
:1008F4001A687B681B6842F008021A6007E07B688C
:100904001B681A687B681B6822F008021A607B68FF
:100914005B7F012B08D17B681B681A687B681B68A6
:1009240042F004021A6007E07B681B681A687B685F
:100934001B6822F004021A607B689A687B68DB6893
:100944001A437B681B691A437B685B6942EA0301AB
:100954007B685B685A1E7B681B680A43DA617B68A4
:1009640000225A627B68012283F820200023184663
:100974001037BD4680BD80B487B000AF7860396061
:100984007B681B687B617B6893F82030FB74FB7C7D
:10099400012B03D0FB7C022B40F0AA807B69D3F8A7
:1009A400003243F001027B69C3F800223B685B69B3
:1009B40003F01F03012202FA03F3FB607B69D3F8FF
:1009C4001C22FB68DB431A407B69C3F81C223B688A
:1009D400DB69002B23D17B69D3F80C22FB68DB4352
:1009E4001A407B69C3F80C223B68DB6819043B6836
:1009F4005B689BB23A68526919437B69483243F891
:100A040032103B689B6819043B681B689AB23B68C8
:100A14005B690A4379694833DB000B445A603B68DD
:100A2400DB69012B22D17B69D3F80C22FB681A43C2
:100A34007B69C3F80C223B681B6819043B685B683C
:100A44009BB23A68526919437B69483243F83210C1
:100A54003B689B6819043B68DB689AB23B685B6936
:100A64000A4379694833DB000B445A603B689B694D
:100A7400002B09D17B69D3F80422FB68DB431A40BD
:100A84007B69C3F8042207E07B69D3F80422FB687E
:100A94001A437B69C3F804223B681B69002B09D104
:100AA4007B69D3F81422FB68DB431A407B69C3F8E3
:100AB400142207E07B69D3F81422FB681A437B698C
:100AC400C3F814223B681B6A012B07D17B69D3F856
:100AD4001C22FB681A437B69C3F81C227B69D3F888
:100AE400003223F001027B69C3F80022002306E0F0
:100AF4007B685B6A43F480227B685A620123184650
:100B04001C37BD4680BC704780B584B000AF7860A8
:100B14007B6893F82030DBB2012B2ED17B68022254
:100B240083F820207B681B681A687B681B6822F0A6
:100B340001021A6000F010FCF86012E000F00CFCF6
:100B44000246FB68D31A0A2B0BD97B685B6A43F411
:100B540000327B685A627B68052283F820200123D7
:100B640012E07B681B685B6803F00103002BE5D18E
:100B74007B6800225A62002306E07B685B6A43F4C8
:100B840000227B685A62012318461037BD4680BD97
:100B940080B487B000AFF860B9607A603B60FB68EE
:100BA40093F82030FB75FB7D012B03D0FB7D022BDA
:100BB40040F00381BB68002B0ED1FB681B68DB6827
:100BC40003F00303002B16D1FB685B6A43F40012A5
:100BD400FB685A620123F7E0FB681B681B6903F09A
:100BE4000303002B07D1FB685B6A43F40012FB6824
:100BF4005A620123E8E0FB681A68BB681B331B01D7
:100C040013441B6803F004027B689A607B689B684A
:100C1400002B0CD1FB681A68BB681B331B011344FF
:100C24001B685B0DC3F30A027B681A600BE0FB6868
:100C34001A68BB681B331B0113441B68DB0823F0D1
:100C440060427B685A60FB681A68BB681B331B01EF
:100C540013441B6803F002027B68DA60FB681A68BD
:100C6400BB681B331B01134404331B6803F00803E4
:100C7400002B03D07B6808221A610BE0FB681A681A
:100C8400BB681B331B01134404331B6803F00F02BE
:100C94007B681A61FB681A68BB681B331B01134429
:100CA40004331B681B0ADAB27B689A61FB681A6812
:100CB400BB681B331B01134404331B681B0C9AB21F
:100CC4007B685A61FB681A68BB681B01134403F50F
:100CD400DC731B68DAB23B681A70FB681A68BB687D
:100CE4001B01134403F5DC731B681A0A3B680133C8
:100CF400D2B21A70FB681A68BB681B01134403F56F
:100D0400DC731B681A0C3B680233D2B21A70FB689E
:100D14001A68BB681B01134403F5DC731B681A0EC5
:100D24003B680333D2B21A70FB681A68BB681B01B4
:100D3400134403F5DE731A683B680433D2B21A70A5
:100D4400FB681A68BB681B01134403F5DE731B6858
:100D54001A0A3B680533D2B21A70FB681A68BB687A
:100D64001B01134403F5DE731B681A0C3B6806333E
:100D7400D2B21A70FB681A68BB681B01134403F5EE
:100D8400DE731B681A0E3B680733D2B21A70BB6855
:100D9400002B08D1FB681B68DA68FB681B6842F00B
:100DA4002002DA6007E0FB681B681A69FB681B68AD
:100DB40042F020021A61002306E0FB685B6A43F4F8
:100DC4008022FB685A62012318461C37BD4680BC4A
:100DD400704780B485B000AF786039607B6893F861
:100DE4002030FB73FB7B012B02D0FB7B022B09D150
:100DF4007B681B6859697B681B683A680A435A61B7
:100E0400002306E07B685B6A43F480227B685A62B5
:100E1400012318461437BD4680BC704780B58AB09C
:100E240000AF786000237B627B681B685B693B6270
:100E34007B681B685B68FB617B681B689B68BB61A4
:100E44007B681B68DB687B617B681B681B693B6193
:100E54007B681B689B69FB603B6A03F00103002B02
:100E64007CD0BB6903F00103002B23D07B681B6893
:100E740001229A60BB6903F00203002B03D0786857
:100E840000F083F916E0BB6903F00403002B04D0DF
:100E94007B6A43F400637B620CE0BB6903F00803E4
:100EA400002B04D07B6A43F480537B6202E07868B1
:100EB40000F086F9BB6903F48073002B24D07B68AF
:100EC4001B684FF480729A60BB6903F40073002BB3
:100ED40003D0786800F062F916E0BB6903F480631C
:100EE400002B04D07B6A43F400537B620CE0BB69A3
:100EF40003F40063002B04D07B6A43F480437B62D9
:100F040002E0786800F065F9BB6903F48033002BD4
:100F140024D07B681B684FF480329A60BB6903F469
:100F24000033002B03D0786800F041F916E0BB6968
:100F340003F48023002B04D07B6A43F400437B62D8
:100F44000CE0BB6903F40023002B04D07B6A43F458
:100F540080337B6202E0786800F044F93B6A03F076
:100F64000803002B0CD07B6903F01003002B07D07F
:100F74007B6A43F400737B627B681B681022DA602F
:100F84003B6A03F00403002B0BD07B6903F00803D6
:100F9400002B06D07B681B680822DA60786800F0B2
:100FA4002AF93B6A03F00203002B09D07B681B6813
:100FB400DB6803F00303002B02D0786803F086F8A3
:100FC4003B6A03F04003002B0CD03B6903F0100391
:100FD400002B07D07B6A43F480637B627B681B68C9
:100FE40010221A613B6A03F02003002B0BD03B69EB
:100FF40003F00803002B06D07B681B6808221A61E3
:10100400786800F00AF93B6A03F01003002B09D05A
:101014007B681B681B6903F00303002B02D078680C
:1010240000F0F2F83B6A03F40033002B0BD0FB69A9
:1010340003F01003002B06D07B681B6810225A6053
:10104400786800F0F3F83B6A03F48033002B0BD08C
:10105400FB6903F00803002B06D07B681B68082299
:101064005A60786800F0EBF83B6A03F40043002B05
:101074007BD0FB6903F00403002B72D03B6A03F4BA
:101084008073002B08D0FB6803F00103002B03D00E
:101094007B6A43F001037B623B6A03F40073002B19
:1010A40008D0FB6803F00203002B03D07B6A43F0F3
:1010B40002037B623B6A03F48063002B08D0FB6865
:1010C40003F00403002B03D07B6A43F004037B6228
:1010D4003B6A03F40063002B43D0FB6803F0700306
:1010E400002B3ED0FB6803F07003602B2BD0602BE9
:1010F4002ED8502B22D0502B2AD8402B19D0402B3D
:1011040026D8302B10D0302B22D8102B02D0202BF5
:1011140005D01DE07B6A43F008037B6219E07B6A1B
:1011240043F010037B6214E07B6A43F020037B628C
:101134000FE07B6A43F040037B620AE07B6A43F082
:1011440080037B6205E07B6A43F480737B6200E08A
:1011540000BF7B681B689A697B681B6822F0700279
:101164009A617B681B6804225A607B6A002B08D052
:101174007B685A6A7B6A1A437B685A62786800F013
:1011840067F800BF2837BD4680BD80B483B000AF88
:10119400786000BF0C37BD4680BC704780B483B014
:1011A40000AF786000BF0C37BD4680BC704780B488
:1011B40083B000AF786000BF0C37BD4680BC704779
:1011C40080B483B000AF786000BF0C37BD4680BCEC
:1011D400704780B483B000AF786000BF0C37BD4661
:1011E40080BC704780B483B000AF786000BF0C3718
:1011F400BD4680BC704780B483B000AF786000BF48
:101204000C37BD4680BC704780B483B000AF7860B3
:1012140000BF0C37BD4680BC704780B483B000AFBC
:10122400786000BF0C37BD4680BC704780B483B083
:1012340000AF786000BF0C37BD4680BC704780B4F7
:1012440083B000AF786000BF0C37BD4680BC7047E8
:1012540080B483B000AF786000BF0C37BD4680BC5B
:10126400704780B485B000AF78600023FB737B685F
:1012740093F82030BB73BB7B012B02D0BB7B022BCA
:1012840003D17B6800225A6207E07B685B6A43F4FF
:1012940080227B685A620123FB73FB7B1846143758
:1012A400BD4680BC7047000080B500AF084B1B688A
:1012B400074A43F010031360032000F0EBFE0F20F5
:1012C40000F008F802F088FE0023184680BD00BF35
:1012D4000020024080B582B000AF7860124B1A68DB
:1012E400124B1B7819464FF47A73B3FBF1F3B2FB3C
:1012F400F3F3184600F003FF0346002B01D001234B
:101304000EE07B680F2B0AD8002279684FF0FF307B
:1013140000F0CBFE064A7B681360002300E0012343
:1013240018460837BD4680BD000000200800002094
:101334000400002080B400AF054B1B781A46054B0F
:101344001B681344034A136000BFBD4680BC70474A
:10135400080000205800002080B400AF024B1B6836
:101364001846BD4680BC70475800002080B584B044
:1013740000AF7860FFF7F0FFB8607B68FB60FB6844
:10138400B3F1FF3F05D00A4B1B781A46FB681344A0
:10139400FB6000BFFFF7E0FF0246BB68D31AFA68A0
:1013A4009A42F7D800BF00BF1037BD4680BD00BFCA
:1013B4000800002080B586B000AF78607B68002B01
:1013C40001D1012372E27B681B6803F00103002B47
:1013D40000F08780924B5B6803F00C03042B0CD065
:1013E4008F4B5B6803F00C03082B12D18C4B5B68AA
:1013F40003F48033B3F5803F0BD1894B1B6803F4AE
:101404000033002B6CD07B685B68002B68D1012310
:101414004CE27B685B68B3F5803F06D1804B1B6868
:101424007F4A43F4803313602EE07B685B68002BB3
:101434000CD17B4B1B687A4A23F480331360784BBE
:101444001B68774A23F4802313601DE07B685B6884
:10145400B3F5A02F0CD1724B1B68714A43F480235F
:1014640013606F4B1B686E4A43F4803313600BE0C8
:101474006B4B1B686A4A23F480331360684B1B6808
:10148400674A23F4802313607B685B68002B13D0C6
:10149400FFF762FF386108E0FFF75EFF02463B6931
:1014A400D31A642B01D9032300E25D4B1B6803F4B8
:1014B4000033002BF0D014E0FFF74EFF386108E052
:1014C400FFF74AFF02463B69D31A642B01D9032371
:1014D400ECE1534B1B6803F40033002BF0D100E024
:1014E40000BF7B681B6803F00203002B63D04C4BE6
:1014F4005B6803F00C03002B0BD0494B5B6803F0D3
:101504000C03082B1CD1464B5B6803F48033002B7F
:1015140016D1434B1B6803F00203002B05D07B68F4
:101524001B69012B01D00123C0E13D4B1B6823F053
:10153400F8027B685B69DB00394913430B603AE0CE
:101544007B681B69002B20D0364B01221A60FFF701
:1015540003FF386108E0FFF7FFFE02463B69D31A38
:10156400022B01D90323A1E12D4B1B6803F00203D5
:10157400002BF0D02A4B1B6823F0F8027B685B69D0
:10158400DB00274913430B6015E0264B00221A6049
:10159400FFF7E2FE386108E0FFF7DEFE02463B6932
:1015A400D31A022B01D9032380E11D4B1B6803F0DE
:1015B4000203002BF0D17B681B6803F00803002BA7
:1015C4003AD07B689B69002B19D0174B01221A6013
:1015D400FFF7C2FE386108E0FFF7BEFE02463B6932
:1015E400D31A022B01D9032360E10D4B5B6A03F08C
:1015F4000203002BF0D0012000F09CFA1CE00A4BFF
:1016040000221A60FFF7A8FE38610FE0FFF7A4FE7E
:1016140002463B69D31A022B08D9032346E100BFD3
:10162400001002400000424280044242924B5B6A36
:1016340003F00203002BE9D17B681B6803F0040369
:10164400002B00F0A6800023FB758B4BDB6903F0B5
:101654008053002B0DD1884BDB69874A43F08053BC
:10166400D361854BDB6903F08053BB60BB68012306
:10167400FB75824B1B6803F48073002B18D17F4BDE
:101684001B687E4A43F480731360FFF765FE38617C
:1016940008E0FFF761FE02463B69D31A642B01D9C7
:1016A400032303E1754B1B6803F48073002BF0D014
:1016B4007B68DB68012B06D16F4B1B6A6E4A43F0D3
:1016C400010313622DE07B68DB68002B0CD16A4BAD
:1016D4001B6A694A23F001031362674B1B6A664A5B
:1016E40023F0040313621CE07B68DB68052B0CD138
:1016F400614B1B6A604A43F0040313625E4B1B6A2E
:101704005D4A43F0010313620BE05B4B1B6A5A4AC8
:1017140023F001031362584B1B6A574A23F0040356
:1017240013627B68DB68002B15D0FFF715FE386168
:101734000AE0FFF711FE02463B69D31A41F28832F0
:10174400934201D90323B1E04B4B1B6A03F002031C
:10175400002BEED014E0FFF7FFFD38610AE0FFF73D
:10176400FBFD02463B69D31A41F28832934201D908
:1017740003239BE0404B1B6A03F00203002BEED1D2
:10178400FB7D012B05D13C4BDB693B4A23F08053A5
:10179400D3617B68DB69002B00F08780364B5B6884
:1017A40003F00C03082B61D07B68DB69022B46D164
:1017B400334B00221A60FFF7CFFD386108E0FFF7D2
:1017C400CBFD02463B69D31A022B01D903236DE0FA
:1017D400294B1B6803F00073002BF0D17B681B6A54
:1017E400B3F5803F08D1244B5B6823F400327B6857
:1017F4009B68214913434B601F4B5B6823F47412AD
:101804007B68196A7B685B6A0B431B4913434B6013
:101814001B4B01221A60FFF79FFD386108E0FFF7B8
:101824009BFD02463B69D31A022B01D903233DE0F9
:10183400114B1B6803F00073002BF0D035E0104B04
:1018440000221A60FFF788FD386108E0FFF784FD85
:1018540002463B69D31A022B01D9032326E0064B27
:101864001B6803F00073002BF0D11EE07B68DB697A
:10187400012B07D1012319E0001002400070004041
:10188400600042420B4B5B68FB60FB6803F48032F0
:101894007B681B6A9A4206D1FB6803F470127B686A
:1018A4005B6A9A4201D0012300E0002318461837EE
:1018B400BD4680BD0010024080B584B000AF7860A2
:1018C40039607B68002B01D10123D0E06A4B1B688F
:1018D40003F007033A689A4210D9674B1B6823F058
:1018E400070265493B6813430B60634B1B6803F0B5
:1018F40007033A689A4201D00123B8E07B681B6869
:1019040003F00203002B20D07B681B6803F0040360
:10191400002B05D0594B5B68584A43F4E06353608D
:101924007B681B6803F00803002B05D0534B5B68EE
:10193400524A43F460535360504B5B6823F0F00207
:101944007B689B684D4913434B607B681B6803F0BD
:101954000103002B40D07B685B68012B07D1474B08
:101964001B6803F40033002B15D101237FE07B684F
:101974005B68022B07D1414B1B6803F00073002BFB
:1019840009D1012373E03D4B1B6803F00203002BD4
:1019940001D101236BE0394B5B6823F003027B68C0
:1019A4005B68364913434B60FFF7D6FCF8600AE0E6
:1019B400FFF7D2FC0246FB68D31A41F28832934205
:1019C40001D9032353E02D4B5B6803F00C027B68C1
:1019D4005B689B009A42EBD1274B1B6803F007031B
:1019E4003A689A4210D2244B1B6823F0070222491A
:1019F4003B6813430B60204B1B6803F007033A68F2
:101A04009A4201D0012332E07B681B6803F004038F
:101A1400002B08D0194B5B6823F4E0627B68DB6819
:101A2400164913434B607B681B6803F00803002BC3
:101A340009D0124B5B6823F460527B681B69DB009E
:101A44000E4913434B6000F021F802460B4B5B68D0
:101A54001B0903F00F030A49CB5C22FA03F3094A7A
:101A64001360094B1B681846FFF734FC0023184623
:101A74001037BD4680BD00BF002002400010024068
:101A840004560008000000200400002080B487B041
:101A940000AF0023FB600023BB6000237B610023B5
:101AA4007B6000233B611E4B5B68FB60FB6803F0BB
:101AB4000C03042B02D0082B03D027E0194B3B6105
:101AC40027E0FB689B0C03F00F03174AD35C7B6091
:101AD400FB6803F48033002B10D0114B5B685B0C64
:101AE40003F00103114AD35CBB607B680D4A03FB1E
:101AF40002F2BB68B2FBF3F37B6104E07B680C4A3F
:101B040002FB03F37B617B693B6102E0054B3B61B4
:101B140000BF3B6918461C37BD4680BC704700BFF8
:101B24000010024000127A001456000824560008DF
:101B340000093D0080B485B000AF78600A4B1B6893
:101B44000A4AA2FB03235B0A7A6802FB03F3FB60E5
:101B540000BFFB685A1EFA60002BF9D100BF00BF1A
:101B64001437BD4680BC704700000020D34D62107E
:101B740080B48BB000AF7860396000237B620023AF
:101B84003B6279E101227B6A02FA03F3FB613B6861
:101B94001B68FA691340BB61BA69FB699A4240F059
:101BA40068813B685B68964A93425ED0944A93424C
:101BB40075D8944A934258D0924A93426FD8924A25
:101BC400934252D0904A934269D8904A93424CD05F
:101BD4008E4A934263D88E4A934246D08C4A9342AB
:101BE4005DD8122B2AD8122B59D801A252F823F00F
:101BF4006F1C0008491C00085B1C00089D1C0008A1
:101C0400A31C0008A31C0008A31C0008A31C0008B4
:101C1400A31C0008A31C0008A31C0008A31C0008A4
:101C2400A31C0008A31C0008A31C0008A31C000894
:101C3400A31C0008511C0008651C0008754A934247
:101C440013D02CE03B68DB683B6229E03B68DB682F
:101C540004333B6224E03B68DB6808333B621FE0EB
:101C64003B68DB680C333B621AE03B689B68002BE3
:101C740002D104233B6213E03B689B68012B05D12E
:101C840008233B627B68FA691A6109E008233B6216
:101C94007B68FA695A6103E000233B6200E000BFFD
:101CA400BB69FF2B01D87B6801E07B6804337B614F
:101CB400BB69FF2B02D87B6A9B0002E07B6A083B6E
:101CC4009B003B617B691A680F213B6901FA03F3AE
:101CD400DB431A40396A3B6901FA03F31A437B690F
:101CE4001A603B685B6803F08053002B00F0C180EE
:101CF400494B9B69484A43F001039361464B9B69F6
:101D040003F00103BB60BB68444A7B6A9B0802334F
:101D140052F82330FB607B6A03F003039B000F221D
:101D240002FA03F3DB43FA681340FB607B683C4A26
:101D340093421FD07B683B4A934219D07B683A4A4E
:101D4400934213D07B68394A93420DD07B68384A5A
:101D5400934207D07B68374A934201D105230AE0B6
:101D6400062308E0042306E0032304E0022302E040
:101D7400012300E000237A6A02F0030292009340F8
:101D8400FA681343FB6025497B6A9B080233FA68AF
:101D940041F823203B685B6803F48013002B06D0D2
:101DA400254B9A682449BB6913438B6006E0224B98
:101DB4009A68BB69DB43204913408B603B685B68CE
:101DC40003F40013002B06D01B4BDA681A49BB69D5
:101DD4001343CB6006E0184BDA68BB69DB43164952
:101DE4001340CB603B685B6803F40033002B25D0C1
:101DF400114B5A681049BB6913434B6025E000BF7F
:101E040000003210000031100000221000002110E8
:101E140000001210000011100010024000000140E8
:101E240000080140000C0140001001400014014072
:101E340000180140001C014000040140154B5A6881
:101E4400BB69DB43134913404B603B685B6803F495
:101E54008033002B06D00F4B1A680E49BB6913431D
:101E64000B6006E00B4B1A68BB69DB43094913405E
:101E74000B607B6A01337B623B681A687B6A22FAD7
:101E840003F3002B7FF47EAE00BF00BF2C37BD46AA
:101E940080BC70470004014080B483B000AF786018
:101EA4000B467B8013467B707B78002B03D07A88AB
:101EB4007B681A6103E07B881A047B681A6100BF9F
:101EC4000C37BD4680BC704780B485B000AF7860E5
:101ED4000B467B807B68DB68FB607A88FB68134079
:101EE4001A04FB68D9437B880B401A437B681A6148
:101EF40000BF1437BD4680BC7047000080B485B075
:101F040000AF78607B6803F00703FB600C4BDB6871
:101F1400BB60BA684FF6FF031340BB60FB681A024C
:101F2400BB68134343F0BF6343F40033BB60044A0C
:101F3400BB68D36000BF1437BD4680BC704700BF88
:101F440000ED00E080B400AF044BDB681B0A03F033
:101F540007031846BD4680BC704700BF00ED00E093
:101F640080B483B000AF0346FB7197F90730002BB0
:101F74000BDBFB7903F01F02064997F907305B0975
:101F8400012000FA02F241F8232000BF0C37BD46BD
:101F940080BC704700E100E080B483B000AF03462A
:101FA4003960FB7197F90730002B0ADB3B68DAB222
:101FB4000C4997F907301201D2B20B4483F800237D
:101FC4000AE03B68DAB20849FB7903F00F03043BEB
:101FD4001201D2B20B441A7600BF0C37BD4680BC46
:101FE400704700BF00E100E000ED00E080B489B07C
:101FF40000AFF860B9607A60FB6803F00703FB6127
:10200400FB69C3F10703042B28BF0423BB61FB69ED
:102014000433062B02D9FB69033B00E000237B61F8
:102024004FF0FF32BB6902FA03F3DA43BB681A408C
:102034007B699A404FF0FF317B6901FA03F3D9437E
:102044007B680B40134318462437BD4680BC704759
:1020540080B582B000AF78607B68013BB3F1807FCC
:1020640001D301230FE00A4A7B68013B53600F212F
:102074004FF0FF30FFF790FF054B00229A60044BAE
:1020840007221A60002318460837BD4680BD00BFEA
:1020940010E000E080B582B000AF78607868FFF7A8
:1020A4002DFF00BF0837BD4680BD80B586B000AFA8
:1020B4000346B9607A60FB7300237B61FFF742FF3C
:1020C40078617A68B9687869FFF790FF024697F9F2
:1020D4000F3011461846FFF75FFF00BF1837BD46A3
:1020E40080BD80B582B000AF0346FB7197F907301D
:1020F4001846FFF735FF00BF0837BD4680BD80B5E1
:1021040082B000AF78607868FFF7A2FF03461846F4
:102114000837BD4680BD80B582B000AF78607B686B
:10212400002B01D1012341E07B6893F83D30DBB201
:10213400002B06D17B68002283F83C20786801F0EC
:1021440033FE7B68022283F83D207B681A687B6833
:1021540004331946104600F06DFD7B68012283F8B4
:1021640046207B68012283F83E207B68012283F8A5
:102174003F207B68012283F840207B68012283F89A
:1021840041207B68012283F842207B68012283F886
:1021940043207B68012283F844207B68012283F872
:1021A40045207B68012283F83D2000231846083728
:1021B400BD4680BD80B485B000AF78607B6893F87D
:1021C4003D30DBB2012B01D0012344E07B680222C5
:1021D40083F83D207B681B68DA687B681B6842F0E3
:1021E4000102DA607B681B681D4A934218D07B6841
:1021F4001B681C4A934213D07B681B68B3F1804F61
:102204000ED07B681B68184A934209D07B681B6810
:10221400164A934204D07B681B68154A934211D135
:102224007B681B689B6803F00703FB60FB68062B55
:1022340010D07B681B681A687B681B6842F0010237
:102244001A6007E07B681B681A687B681B6842F0A9
:1022540001021A60002318461437BD4680BC70473B
:10226400002C0140003401400004004000080040FC
:10227400000C004080B582B000AF78607B68002B12
:1022840001D1012341E07B6893F83D30DBB2002BA0
:1022940006D17B68002283F83C20786800F039F886
:1022A4007B68022283F83D207B681A687B680433CC
:1022B4001946104600F0BEFC7B68012283F84620D4
:1022C4007B68012283F83E207B68012283F83F204B
:1022D4007B68012283F840207B68012283F8412037
:1022E4007B68012283F842207B68012283F8432023
:1022F4007B68012283F844207B68012283F845200F
:102304007B68012283F83D20002318460837BD4628
:1023140080BD80B483B000AF786000BF0C37BD4689
:1023240080BC704780B584B000AF786039603B688A
:10233400002B09D17B6893F83E30DBB2012B14BF2C
:1023440001230023DBB222E03B68042B09D17B6824
:1023540093F83F30DBB2012B14BF01230023DBB21F
:1023640015E03B68082B09D17B6893F84030DBB259
:10237400012B14BF01230023DBB208E07B6893F830
:102384004130DBB2012B14BF01230023DBB2002B4D
:1023940001D0012372E03B68002B04D17B68022248
:1023A40083F83E2013E03B68042B04D17B680222AF
:1023B40083F83F200BE03B68082B04D17B680222A2
:1023C40083F8402003E07B68022283F841207B6885
:1023D4001B6801223968184600F0F4FE7B681B680C
:1023E400284A934204D07B681B68274A934201D150
:1023F400012300E00023002B07D07B681B685A6C84
:102404007B681B6842F400425A647B681B681D4A5F
:10241400934218D07B681B681B4A934213D07B6895
:102424001B68B3F1804F0ED07B681B68174A934238
:1024340009D07B681B68164A934204D07B681B68EA
:10244400144A934211D17B681B689B6803F007030D
:10245400FB60FB68062B10D07B681B681A687B68DE
:102464001B6842F001021A6007E07B681B681A6867
:102474007B681B6842F001021A600023184610377B
:10248400BD4680BD002C01400034014000040040E2
:1024940000080040000C004080B586B000AF7860B2
:1024A40039607B68002B01D1012393E07B6893F8AA
:1024B4003D30DBB2002B06D17B68002283F83C2040
:1024C400786801F0ADFB7B68022283F83D207B68CD
:1024D4001B689B687A68126823F4804323F007031F
:1024E40093607B681A687B6804331946104600F0D1
:1024F400A1FB7B681B689B687B617B681B689B698D
:102504003B617B681B681B6AFB603B681B687A69DC
:1025140013437B613B6923F4407323F003033B6162
:102524003B689A683B689B691B0213433A691343EF
:102534003B613B6923F4406323F00C033B613B693B
:1025440023F4704323F0F0033B613B68DA683B6893
:10255400DB691B0213433A6913433B613B681B6904
:102564001A013B681B6A1B0313433A6913433B611B
:10257400FB6823F02203FB603B685A683B685B6995
:102584001B011343FA681343FB607B681B687A6979
:102594009A607B681B683A699A617B681B68FA6871
:1025A4001A627B68012283F846207B68012283F843
:1025B4003E207B68012283F83F207B68012283F858
:1025C40042207B68012283F843207B68012283F840
:1025D4003D20002318461837BD4680BD80B584B021
:1025E40000AF786039607B6893F83E30FB737B689A
:1025F40093F83F30BB737B6893F842307B737B68FE
:1026040093F843303B733B68002B10D1FB7B012BC9
:1026140002D17B7B012B01D0012369E07B6802227C
:1026240083F83E207B68022283F8422031E03B6835
:10263400042B10D1BB7B012B02D13B7B012B01D09E
:10264400012355E07B68022283F83F207B68022245
:1026540083F843201DE0FB7B012B08D1BB7B012BBE
:1026640005D17B7B012B02D13B7B012B01D00123C4
:102674003EE07B68022283F83E207B68022283F8D6
:102684003F207B68022283F842207B68022283F881
:1026940043203B68002B03D03B68042B08D00FE099
:1026A4007B681B6801220021184600F08BFD16E0B0
:1026B4007B681B6801220421184600F083FD0EE0AC
:1026C4007B681B6801220021184600F07BFD7B68B3
:1026D4001B6801220421184600F074FD00BF7B68CA
:1026E4001B681A687B681B6842F001021A600023A9
:1026F40018461037BD4680BD80B584B000AF786001
:102704007B681B68DB68FB607B681B681B69BB60BC
:10271400BB6803F00203002B20D0FB6803F0020324
:10272400002B1BD07B681B686FF002021A617B6868
:1027340001221A777B681B689B6903F00303002B53
:1027440003D0786800F05AFA05E0786800F04DFA92
:10275400786800F05CFA7B6800221A77BB6803F0A3
:102764000403002B20D0FB6803F00403002B1BD0D0
:102774007B681B686FF004021A617B6802221A7777
:102784007B681B689B6903F44073002B03D0786853
:1027940000F034FA05E0786800F027FA786800F071
:1027A40036FA7B6800221A77BB6803F00803002B13
:1027B40020D0FB6803F00803002B1BD07B681B6848
:1027C4006FF008021A617B6804221A777B681B6821
:1027D400DB6903F00303002B03D0786800F00EFAE2
:1027E40005E0786800F001FA786800F010FA7B6878
:1027F40000221A77BB6803F01003002B20D0FB687B
:1028040003F01003002B1BD07B681B686FF01002D1
:102814001A617B6808221A777B681B68DB6903F4FA
:102824004073002B03D0786800F0E8F905E078687D
:1028340000F0DBF9786800F0EAF97B6800221A7787
:10284400BB6803F00103002B0CD0FB6803F0010309
:10285400002B07D07B681B686FF001021A6178684F
:1028640002F018F9BB6803F08003002B0CD0FB685E
:1028740003F08003002B07D07B681B686FF0800295
:102884001A61786800F088FDBB6803F04003002BF0
:102894000CD0FB6803F04003002B07D07B681B6857
:1028A4006FF040021A61786800F0BAF9BB6803F06F
:1028B4002003002B0CD0FB6803F02003002B07D06F
:1028C4007B681B686FF020021A61786800F05BFD7A
:1028D40000BF1037BD4680BD80B586B000AFF8603C
:1028E400B9607A600023FB75FB6893F83C30012BD8
:1028F40001D10223AEE0FB68012283F83C207B680F
:102904000C2B00F29F8001A252F823F04529000805
:10291400492A0008492A0008492A0008852900088C
:10292400492A0008492A0008492A0008C72900083A
:10293400492A0008492A0008492A0008072A0008E9
:10294400FB681B68B968184600F0FAF9FB681B6855
:102954009A69FB681B6842F008029A61FB681B686D
:102964009A69FB681B6822F004029A61FB681B6881
:102974009969BB681A69FB681B680A439A6164E039
:10298400FB681B68B968184600F04AFAFB681B68C4
:102994009A69FB681B6842F400629A61FB681B68D1
:1029A4009A69FB681B6822F480629A61FB681B6861
:1029B4009969BB681B691A02FB681B680A439A6120
:1029C40043E0FB681B68B968184600F09DFAFB6891
:1029D4001B68DA69FB681B6842F00802DA61FB686D
:1029E4001B68DA69FB681B6822F00402DA61FB6881
:1029F4001B68D969BB681A69FB681B680A43DA61FA
:102A040023E0FB681B68B968184600F0F1FAFB681C
:102A14001B68DA69FB681B6842F40062DA61FB68D0
:102A24001B68DA69FB681B6822F48062DA61FB6860
:102A34001B68D969BB681B691A02FB681B680A43D7
:102A4400DA6102E00123FB7500BFFB68002283F812
:102A54003C20FB7D18461837BD4680BD80B584B048
:102A640000AF786039600023FB737B6893F83C30D7
:102A7400012B01D10223B4E07B68012283F83C20BE
:102A84007B68022283F83D207B681B689B68BB60DF
:102A9400BB6823F07703BB60BB6823F47F43BB6050
:102AA4007B681B68BA689A603B681B68B3F5005F73
:102AB4003ED0B3F5005F00F28780B3F5805F00F08D
:102AC4008680B3F5805F7FD8702B1AD0702B7BD8AB
:102AD400602B50D0602B77D8502B3CD0502B73D820
:102AE400402B58D0402B6FD8302B64D0302B6BD870
:102AF400202B60D0202B67D8002B5CD0102B5AD011
:102B040062E07B6818683B6899683B685A683B6870
:102B1400DB6800F038FB7B681B689B68BB60BB68A4
:102B240043F07703BB607B681B68BA689A604FE028
:102B34007B6818683B6899683B685A683B68DB683F
:102B440000F021FB7B681B689A687B681B6842F471
:102B540080429A603CE07B6818683B6859683B682F
:102B6400DB681A4600F098FA7B681B685021184607
:102B740000F0EFFA2CE07B6818683B6859683B6802
:102B8400DB681A4600F0B6FA7B681B6860211846B9
:102B940000F0DFFA1CE07B6818683B6859683B6802
:102BA400DB681A4600F078FA7B681B6840211846F7
:102BB40000F0CFFA0CE07B681A683B681B68194682
:102BC400104600F0C6FA03E00123FB7300E000BFE7
:102BD4007B68012283F83D207B68002283F83C2037
:102BE400FB7B18461037BD4680BD80B483B000AF70
:102BF400786000BF0C37BD4680BC704780B483B09A
:102C040000AF786000BF0C37BD4680BC704780B40D
:102C140083B000AF786000BF0C37BD4680BC7047FE
:102C240080B483B000AF786000BF0C37BD4680BC71
:102C34007047000080B485B000AF786039607B686D
:102C44001B68FB607B68394A934213D07B68384A1F
:102C540093420FD07B68B3F1804F0BD07B68354A29
:102C6400934207D07B68344A934203D07B68334A4B
:102C7400934208D1FB6823F07003FB603B685B68F8
:102C8400FA681343FB607B68284A934213D07B683D
:102C9400274A93420FD07B68B3F1804F0BD07B68F7
:102CA400244A934207D07B68234A934203D07B682B
:102CB400224A934208D1FB6823F44073FB603B68CB
:102CC400DB68FA681343FB60FB6823F080023B680F
:102CD4005B691343FB607B68FA681A603B689A6817
:102CE4007B68DA623B681A687B689A627B680F4A81
:102CF400934203D07B680E4A934203D13B681A691E
:102D04007B681A637B6801225A617B681B6903F044
:102D14000103002B05D07B681B6923F001027B684B
:102D24001A6100BF1437BD4680BC7047002C0140B7
:102D3400003401400004004000080040000C004042
:102D440080B487B000AF786039607B681B6A7B61B0
:102D54007B681B6A23F001027B681A627B685B68EC
:102D64003B617B689B69FB60FB6823F07003FB603D
:102D7400FB6823F00303FB603B681B68FA6813439A
:102D8400FB607B6923F002037B613B689B687A6983
:102D940013437B617B68204A934203D07B681F4ABC
:102DA40093420CD17B6923F008037B613B68DB68A9
:102DB4007A6913437B617B6923F004037B617B683D
:102DC400154A934203D07B68144A934211D13B695C
:102DD40023F480733B613B6923F400733B613B68DC
:102DE4005B693A6913433B613B689B693A691343E6
:102DF4003B617B683A695A607B68FA689A613B6810
:102E04005A687B685A637B687A691A6200BF1C3708
:102E1400BD4680BC704700BF002C01400034014017
:102E240080B487B000AF786039607B681B6A7B61CF
:102E34007B681B6A23F010027B681A627B685B68FC
:102E44003B617B689B69FB60FB6823F4E043FB60A8
:102E5400FB6823F44073FB603B681B681B02FA6841
:102E64001343FB607B6923F020037B613B689B6811
:102E74001B017A6913437B617B68214A934203D027
:102E84007B68204A93420DD17B6923F080037B61E8
:102E94003B68DB681B017A6913437B617B6923F020
:102EA40040037B617B68164A934203D07B68154AD2
:102EB400934213D13B6923F480633B613B6923F460
:102EC40000633B613B685B699B003A6913433B6168
:102ED4003B689B699B003A6913433B617B683A6991
:102EE4005A607B68FA689A613B685A687B689A639F
:102EF4007B687A691A6200BF1C37BD4680BC704784
:102F0400002C01400034014080B487B000AF7860E9
:102F140039607B681B6A7B617B681B6A23F480725F
:102F24007B681A627B685B683B617B68DB69FB607A
:102F3400FB6823F07003FB60FB6823F00303FB6072
:102F44003B681B68FA681343FB607B6923F40073D6
:102F54007B613B689B681B027A6913437B617B68D6
:102F6400214A934203D07B68204A93420DD17B6966
:102F740023F400637B613B68DB681B027A691343BB
:102F84007B617B6923F480637B617B68164A93428F
:102F940003D07B68154A934213D13B6923F48053D1
:102FA4003B613B6923F400533B613B685B691B0154
:102FB4003A6913433B613B689B691B013A691343BC
:102FC4003B617B683A695A607B68FA68DA613B68FE
:102FD4005A687B68DA637B687A691A6200BF1C37B7
:102FE400BD4680BC704700BF002C01400034014046
:102FF40080B487B000AF786039607B681B6A3B613E
:103004007B681B6A23F480527B681A627B685B6866
:103014007B617B68DB69FB60FB6823F4E043FB6056
:10302400FB6823F44073FB603B681B681B02FA686F
:103034001343FB603B6923F400533B613B689B688B
:103044001B033A6913433B617B68114A934203D0E3
:103054007B68104A934209D17B6923F480437B61E6
:103064003B685B699B017A6913437B617B687A697E
:103074005A607B68FA68DA613B685A687B681A644C
:103084007B683A691A6200BF1C37BD4680BC704732
:10309400002C01400034014080B487B000AFF860D8
:1030A400B9607A60FB681B6A7B61FB681B6A23F06A
:1030B4000102FB681A62FB689B693B613B6923F070
:1030C400F0033B617B681B013A6913433B617B69F5
:1030D40023F00A037B617A69BB6813437B61FB6855
:1030E4003A699A61FB687A691A6200BF1C37BD4667
:1030F40080BC704780B487B000AFF860B9607A6074
:10310400FB681B6A7B61FB681B6A23F01002FB6887
:103114001A62FB689B693B613B6923F470433B6122
:103124007B681B033A6913433B617B6923F0A0036B
:103134007B61BB681B017A6913437B61FB683A6955
:103144009A61FB687A691A6200BF1C37BD4680BC6D
:10315400704780B485B000AF786039607B689B6845
:10316400FB60FB6823F07003FB603A68FB68134361
:1031740043F00703FB607B68FA689A6000BF14376A
:10318400BD4680BC704780B487B000AFF860B960BA
:103194007A603B60FB689B687B617B6923F47F43B7
:1031A4007B613B681A027B681A43BB6813437A69E4
:1031B40013437B61FB687A699A6000BF1C37BD4684
:1031C40080BC704780B487B000AFF860B9607A60A3
:1031D400BB6803F01F03012202FA03F37B61FB685F
:1031E4001A6A7B69DB431A40FB681A62FB681A6A35
:1031F400BB6803F01F03796801FA03F31A43FB6801
:103204001A6200BF1C37BD4680BC704780B485B0CD
:1032140000AF786039607B6893F83C30012B01D1B2
:10322400022350E07B68012283F83C207B68022261
:1032340083F83D207B681B685B68FB607B681B68C8
:103244009B68BB60FB6823F07003FB603B681B68F2
:10325400FA681343FB607B681B68FA685A607B68F2
:103264001B681B4A934218D07B681B68194A934217
:1032740013D07B681B68B3F1804F0ED07B681B684A
:10328400154A934209D07B681B68144A934204D0C0
:103294007B681B68124A93420CD1BB6823F08003FD
:1032A400BB603B685B68BA681343BB607B681B68A0
:1032B400BA689A607B68012283F83D207B6800220B
:1032C40083F83C20002318461437BD4680BC704761
:1032D400002C01400034014000040040000800407C
:1032E400000C004080B485B000AF786039600023E2
:1032F400FB607B6893F83C30012B01D102233DE055
:103304007B68012283F83C20FB6823F0FF023B68C2
:10331400DB681343FB60FB6823F440723B689B68E3
:103324001343FB60FB6823F480623B685B681343D0
:10333400FB60FB6823F400623B681B681343FB607B
:10334400FB6823F480523B681B691343FB60FB68F2
:1033540023F400523B685B691343FB60FB6823F46E
:1033640080423B68DB691343FB607B681B68FA6837
:103374005A647B68002283F83C20002318461437E3
:10338400BD4680BC704780B483B000AF786000BF96
:103394000C37BD4680BC704780B483B000AF786002
:1033A40000BF0C37BD4680BC704780B584B000AF09
:1033B400FDF77AFF00F026F800F070F800F0C4F88A
:1033C40000F04CF900F0A2F900F0F4F900F046FA2C
:1033D40000F0C4FA00F042FB00F076FB01F028FD97
:1033E40000F0ECFF00F06AFF3B1D184600F04CFEB5
:1033F40001F046FB00F0D8FF4FF4FA70FDF7B6FF7A
:1034040000BFF7E780B590B000AF07F1180328229A
:1034140000211846FDF782F93B1D00221A605A600C
:103424009A60DA601A610123BB614FF48033FB6157
:1034340000233B620123BB6202237B634FF480338E
:10344400BB634FF4E013FB6307F118031846FDF761
:10345400B1FF0346002B01D000F019F80F237B6065
:103464000223BB600023FB604FF480633B610023B5
:103474007B613B1D02211846FEF71EFA0346002B12
:1034840001D000F004F800BF4037BD4680BD80B4D1
:1034940000AF72B600BF00BFFDE7000080B588B082
:1034A40000AF07F1100300221A605A609A60DA60D4
:1034B400234B9B69224A43F020039361204B9B6971
:1034C40003F02003FB60FB681D4B9B691C4A43F01F
:1034D400040393611A4B9B6903F00403BB60BB684C
:1034E400174B9B69164A43F010039361144B9B6975
:1034F40003F010037B607B68114B9B69104A43F017
:10350400080393610E4B9B6903F008033B603B681F
:10351400002204210B48FEF7BFFC04233B61012376
:103524007B610023BB610323FB6107F11003194690
:103534000448FEF71DFB00BF2037BD4680BD00BF19
:10354400001002400008014080B500AF174B184A34
:103554001A60164B02225A60144B00229A60134BD5
:103564000022DA60114B4FF400221A610F4B4FF422
:10357400E0025A610D4B00221A760C4B00225A7657
:103584000A4B00229A76094B0022DA76074B002276
:103594001A77064B00225A770448FDF7F1F80346E0
:1035A400002B01D0FFF773FF00BF80BD5C0000203B
:1035B4000064004080B588B000AF786007F1100364
:1035C40000221A605A609A60DA607B681B68204A9D
:1035D400934239D11F4BDB691E4A43F00073D36118
:1035E4001C4BDB6903F00073FB60FB68194B9B69A0
:1035F400184A43F004039361164B9B6903F00403D8
:10360400BB60BB684FF400633B6100237B61002314
:10361400BB6107F1100319460F48FEF7A9FA4FF4EE
:1036240080533B6102237B610323FB6107F1100399
:1036340019460948FEF79CFA002201211420FEF7DE
:1036440034FD1420FEF74DFD00BF2037BD4680BD7C
:1036540000640040001002400008014080B58CB0B6
:1036640000AF07F10C03242200211846FDF756F899
:103674003B1D00221A605A60224B234A1A60214BD8
:1036840000225A601F4B00229A601E4B4FF6FF72B5
:10369400DA601C4B00221A611A4B00225A61194B42
:1036A40080229A610323FB6000233B6101237B6139
:1036B4000023BB610023FB6100233B6201237B6287
:1036C4000023BB620623FB6207F10C0319460D4875
:1036D400FEF7E2FE0346002B01D0FFF7D8FE0023DD
:1036E4007B600023BB603B1D19460648FFF78EFD37
:1036F4000346002B01D0FFF7CAFE00BF3037BD469A
:1037040080BD00BF84000020002C014080B58CB037
:1037140000AF07F10C03242200211846FCF7FEFF3A
:103724003B1D00221A605A60214B4FF080421A6000
:103734001F4B00225A601E4B00229A601C4B4FF60E
:10374400FF72DA601A4B00221A61194B80229A61C7
:103754000323FB6000233B6101237B610023BB61E6
:103764000023FB6100233B6201237B620023BB62D5
:103774000623FB6207F10C0319460D48FEF78CFE85
:103784000346002B01D0FFF782FE00237B60002359
:10379400BB603B1D19460648FFF738FD0346002B66
:1037A40001D0FFF774FE00BF3037BD4680BD00BFB7
:1037B400CC00002080B58CB000AF07F10C032422AC
:1037C40000211846FCF7AAFF3B1D00221A605A602C
:1037D400204B214A1A601F4B00225A601D4B0022C5
:1037E4009A601C4B4FF6FF72DA601A4B00221A6182
:1037F400184B80229A610323FB6000233B61012361
:103804007B610023BB610023FB6100233B62012336
:103814007B620023BB620623FB6207F10C0319469B
:103824000C48FEF739FE0346002B01D0FFF72FFEAC
:1038340000237B600023BB603B1D19460548FFF74E
:10384400E5FC0346002B01D0FFF721FE00BF303713
:10385400BD4680BD140100200004004080B58EB038
:1038640000AF07F1280300221A605A609A60DA60F8
:1038740007F1200300221A605A603B1D00221A60DF
:103884005A609A60DA601A615A619A61314B324A1D
:103894001A60304B23225A602E4B00229A602D4B23
:1038A4006322DA602B4B00221A612A4B80229A6130
:1038B4002848FEF730FC0346002B01D0FFF7E7FD54
:1038C4004FF48053BB6207F1280319462148FFF7E0
:1038D400C5F80346002B01D0FFF7D9FD1D48FEF7BC
:1038E400C9FC0346002B01D0FFF7D1FD00233B6246
:1038F40000237B6207F1200319461648FFF786FC74
:103904000346002B01D0FFF7C2FD60237B60002338
:10391400BB600023FB6000237B613B1D0022194632
:103924000C48FEF7D9FF0346002B01D0FFF7AFFD8B
:103934003B1D042219460748FEF7CEFF0346002B21
:1039440001D0FFF7A4FD034800F090FA00BF383718
:10395400BD4680BD5C0100200008004080B58EB0EB
:1039640000AF07F1280300221A605A609A60DA60F7
:1039740007F1200300221A605A603B1D00221A60DE
:103984005A609A60DA601A615A619A61314B324A1C
:103994001A60304B23225A602E4B00229A602D4B22
:1039A4006322DA602B4B00221A612A4B80229A612F
:1039B4002848FEF7B0FB0346002B01D0FFF767FD54
:1039C4004FF48053BB6207F1280319462148FFF7DF
:1039D40045F80346002B01D0FFF759FD1D48FEF7BB
:1039E40049FC0346002B01D0FFF751FD00233B6245
:1039F40000237B6207F1200319461648FFF706FCF3
:103A04000346002B01D0FFF742FD60237B600023B7
:103A1400BB600023FB6000237B613B1D0022194631
:103A24000C48FEF759FF0346002B01D0FFF72FFD8A
:103A34003B1D042219460748FEF74EFF0346002BA0
:103A440001D0FFF724FD034800F010FA00BF383717
:103A5400BD4680BDA4010020000C004080B582B0AA
:103A640000AF3B4600221A605A60154B154A1A6093
:103A7400134B41F61F425A60114B00229A60104BBF
:103A84006322DA600E4B80229A610D48FEF743FBF5
:103A94000346002B01D0FFF7FAFC00233B60002310
:103AA4007B603B4619460648FFF7B0FB0346002BF4
:103AB40001D0FFF7ECFC00BF0837BD4680BD00BF56
:103AC400EC0100200010004080B596B000AF07F173
:103AD400480300221A605A609A60DA6007F14003D2
:103AE40000221A605A6007F1240300221A605A6007
:103AF4009A60DA601A615A619A613B1D20220021A2
:103B04001846FCF70BFE444B444A1A60424B2322EE
:103B14005A60414B00229A603F4B6322DA603E4B6D
:103B240000221A613C4B00225A613B4B80229A616D
:103B34003948FEF7F0FA0346002B01D0FFF7A7FC43
:103B44004FF48053BB6407F1480319463248FEF72B
:103B540085FF0346002B01D0FFF799FC2E48FEF7A2
:103B640089FB0346002B01D0FFF791FC00233B6443
:103B740000237B6407F1400319462748FFF746FBFF
:103B84000346002B01D0FFF782FC60237B620023F5
:103B9400BB620023FB6200233B6300237B6300239F
:103BA400BB630023FB6307F12403002219461A4870
:103BB400FEF792FE0346002B01D0FFF768FC07F1E5
:103BC4002403042219461448FEF786FE0346002BFC
:103BD40001D0FFF75CFC00237B600023BB60002363
:103BE400FB6000233B6100237B614FF40053BB6106
:103BF40000233B623B1D19460748FFF773FB03464E
:103C0400002B01D0FFF743FC034800F02FF900BF5D
:103C14005837BD4680BD00BF340200200034014047
:103C240080B58EB000AF786007F1240300221A60DB
:103C34005A609A60DA607B681B68554A934225D1C2
:103C4400544B9B69534A43F400639361514B9B6902
:103C540003F400633B623B6A4E4B9B694D4A43F05D
:103C6400040393614B4B9B6903F00403FB61FB6901
:103C74004FF440737B620023BB620023FB6207F1B5
:103C8400240319464448FDF773FF7DE07B681B68F5
:103C9400B3F1804F4FD13F4BDB693E4A43F0010300
:103CA400D3613C4BDB6903F00103BB61BB69394B56
:103CB4009B69384A43F004039361364B9B6903F0D4
:103CC40004037B617B69334B9B69324A43F00803ED
:103CD4009361304B9B6903F008033B613B694FF4EC
:103CE40000437B620023BB620023FB6207F12403D1
:103CF40019462948FDF73CFF08237B620023BB6279
:103D04000023FB6207F1240319462448FDF730FF22
:103D1400234B5B687B637B6B23F440737B637B6B1C
:103D240043F0E0637B637B6B43F480737B631C4AE7
:103D34007B6B536028E07B681B681A4A934223D14B
:103D4400144BDB69134A43F00203D361114BDB6963
:103D540003F00203FB60FB680E4B9B690D4A43F0C2
:103D6400040393610B4B9B6903F00403BB60BB68C2
:103D7400C0237B620023BB620023FB6207F12403A0
:103D840019460548FDF7F4FE00BF3837BD4680BD2F
:103D9400002C01400010024000080140000C0140CA
:103DA400000001400004004080B586B000AF786098
:103DB4007B681B68284A93420CD1284BDB69274A4D
:103DC40043F00403D361254BDB6903F004037B61F7
:103DD4007B693CE07B681B68214A93420CD11F4BF2
:103DE400DB691E4A43F00803D3611C4BDB6903F013
:103DF40008033B613B692AE07B681B68194A9342CC
:103E040014D1164BDB69154A43F01003D361134BED
:103E1400DB6903F01003FB60FB68002200213620FD
:103E2400FEF743F93620FEF75CF910E07B681B6867
:103E34000D4A93420BD1094B9B69084A43F4005342
:103E44009361064B9B6903F40053BB60BB6800BFDE
:103E54001837BD4680BD00BF000800400010024076
:103E6400000C0040001000400034014080B58AB0CE
:103E740000AF786007F1180300221A605A609A6054
:103E8400DA607B681B682D4A934218D12C4B9B69DE
:103E94002B4A43F008039361294B9B6903F0080301
:103EA4007B617B69C023BB610223FB6102237B62CC
:103EB40007F1180319462348FDF75AFE3AE07B68D8
:103EC4001B68214A934218D11D4B9B691C4A43F03D
:103ED400040393611A4B9B6903F004033B613B6940
:103EE4000323BB610223FB6102237B6207F11803F6
:103EF40019461648FDF73CFE1CE07B681B68144A13
:103F0400934217D10E4B9B690D4A43F01003936102
:103F14000B4B9B6903F01003FB60FB68C023BB6180
:103F24000223FB6102237B6207F118031946094847
:103F3400FDF71EFE00BF2837BD4680BD00080040C7
:103F440000100240000C0140000C00400008014039
:103F5400003401400010014080B400AF00BFFDE711
:103F640080B400AF00BFFDE780B400AF00BFFDE741
:103F740080B400AF00BFFDE780B400AF00BFFDE731
:103F840080B400AF00BFBD4680BC704780B400AFB2
:103F940000BFBD4680BC704780B400AF00BFBD46C3
:103FA40080BC704780B500AFFDF7C4F900BF80BD89
:103FB40080B500AF0248FCF731FF00BF80BD00BFF1
:103FC4005C00002080B500AF0248FEF795FB00BFFF
:103FD40080BD00BFEC01002080B485B000AF154B5C
:103FE4009B69144A43F001039361124B9B6903F0EC
:103FF4000103BB60BB680F4BDB690E4A43F080537F
:10400400D3610C4BDB6903F080537B607B680A4B04
:104014005B68FB60FB6823F0E063FB60FB6843F0D4
:104024000073FB60044AFB68536000BF1437BD464D
:1040340080BC70470010024000000140FCF79AFB6E
:104044000B480C490C4A002302E0D458C4500433F2
:10405400C4188C42F9D3094A094C002301E01360C7
:104064000432A242FBD3FCF761FBFFF79EF97047D1
:10407400000000203C000020785600083C0000208E
:10408400A0070020FEE7000080B582B000AF786092
:104094007B68002B13D00C2200210B48FCF73EFB5D
:1040A400094B00221A70084B00225A70064B00225A
:1040B4005A60054B00221A7200F02AF800E000BF93
:1040C4000837BD4680BD00BFA402002080B58CB077
:1040D40000AF786007F10C0307F11402002178683F
:1040E400FCF756FD0346002B0BD10849002001F0D4
:1040F40047FA07F10C0207F114031146184600F0C1
:104104006FF800BF3037BD4680BD00BFE8550008DA
:1041140080B58AB000AF01233B620023BB61012359
:10412400FB6100233B6000237B600023BB60002312
:10413400FB6000237B6100233B613B461946114829
:10414400FCF719FC0346002B03D0012000F01CF8F7
:1041540014E00C48FCF7D8FC0346002B03D00120E4
:1041640000F012F80AE002210648FCF732FE03468A
:10417400002B03D0012000F007F800BF2837BD460C
:1041840080BD00BF5C00002080B582B000AF034654
:10419400FB71114AFB791370FB79012B02D0022BBE
:1041A40007D014E00D48FDF75CF80C48FCF7ACFCB4
:1041B4000DE0094B5B780133DAB2074B5A70064BBA
:1041C4005B78032B02D9044B01221A7000BF00BF95
:1041D4000837BD4680BD00BFA40200205C0000205B
:1041E40080B483B000AF786039607B68002B5AD00C
:1041F4003B68002B57D07B681B68A3F50073052B25
:1042040053D87B681B68DBB2013BDAB2294B1A70C6
:104214003B681B781BB21B021AB23B6801331B7844
:104224001BB2134319B2234B1B781A4689B2224B93
:1042340023F832103B6802331B781BB21B021AB2FC
:104244003B6803331B781BB213431AB2194B1B7818
:1042540091B2194ADB0013440A465A803B6804337E
:104264001B781BB21B021AB23B6805331B781BB2C6
:1042740013431AB20F4B1B7891B20F4ADB0013445D
:104284000A469A803B6806331B780A4A127810461D
:10429400002B14BF01230023D9B2074AC3001344DF
:1042A4000A469A7102E000BF00E000BF0C37BD4629
:1042B40080BC7047B00200207C02002080B582B030
:1042C40000AF0023FB7135E0FA791E4913465B0009
:1042D40013449B000B441868FA791A4913465B008F
:1042E40013449B000B4404331B681946FEF776F90C
:1042F400FA79144913465B0013449B000B44186875
:10430400FA79104913465B0013449B000B440833AD
:104314001B681946FEF762F9FA790A4913465B00ED
:1043240013449B000B441B681B6800225A62FB79F0
:104334000133FB71FB79022BC6D900BF00BF0837DC
:10434400BD4680BD2856000880B584B000AF034642
:10435400FB71FB79002B02D0FB79032B02D94FF0C0
:10436400000318E0FB795A1E0D4913465B00134401
:104374009B000B441B681B685B6AFB81B7F90E301A
:104384001846FCF79BF8034606491846FBF728FF36
:104394000346BB60BB6818461037BD4680BD00BFEE
:1043A400285600080000F03E80B500AF0421024802
:1043B400FDF78AFD00BF80BD0008014080B582B0D2
:1043C40000AF0023FB712FE0FB791B4A1B01134450
:1043D4001B681B68DA6AFB7991B2174A1B01134404
:1043E4000C330A461A80FB79134A1B0113441A68DA
:1043F400FB7911491B010B4404331B681946104611
:10440400FDF790FFFB790C4A1B0113441A68FB79F2
:1044140009491B010B4408331B6819461046FDF774
:1044240081FFFB790133FB71FB79022BCCD900238B
:1044340018460837BD4680BD0C00002080B584B006
:1044440000AF7860786800F09DF80346002B01D037
:10445400012352E07B681B78002B04D07B681B7817
:10446400013BDBB200E00023BB737B681B78002BAD
:1044740002D07B681B7800E003237B73BB7BFB7358
:1044840036E07B68B3F90230002BB8BF5B429BB2C5
:104494001946FB7B1B4A1B0113440C331B8801FB8D
:1044A40003F3194A82FB03129211DB17D31A7B819F
:1044B4007B68B3F90230002B06DD7989FB7B00228F
:1044C400184600F07DF810E07B68B3F90230002B49
:1044D40006DA7A89FB7B0021184600F071F804E0C3
:1044E4007B681B78184600F011F8FB7B0133FB73E3
:1044F400FA7B7B7B9A42C4D3002318461037BD460F
:1045040080BD00BF0C000020D34D621080B584B084
:1045140000AF0346FB71FB79032B01D901232AE089
:10452400FB79002B03D0FB79013BDBB200E00023D5
:10453400BB73FB79002B01D0FB7900E003237B7371
:10454400BB7BFB7312E0FB7B0D4A1B0113440C3352
:104554001988FB7B0A4A1B0113440C331A88FB7B22
:10456400184600F02DF8FB7B0133FB73FA7B7B7B51
:104574009A42E8D3002318461037BD4680BD00BFD9
:104584000C00002080B483B000AF78607B68002BFF
:104594000DD07B681B78032B09D87B68B3F90230F4
:1045A400002BB8BF5B429BB2B3F57A7F01D90123DC
:1045B40000E0002318460C37BD4680BC704700005D
:1045C40080B483B000AF0346FB710B46BB80134637
:1045D4007B80FB793C4A1B01134404331B68002B8A
:1045E40008D1FB79384A1B0113441B681B68BA883D
:1045F4005A6329E0FB79344A1B01134404331B68D2
:10460400042B08D1FB79304A1B0113441B681A6838
:10461400BB88936318E0FB792B4A1B0113440433D2
:104624001B68082B08D1FB79274A1B0113441B681C
:104634001A68BB88D36307E0FB79234A1B01134440
:104644001B681A68BB881364FB791F4A1B01134457
:1046540008331B68002B08D1FB791B4A1B01134448
:104664001B681B687A885A6329E0FB79164A1B0188
:10467400134408331B68042B08D1FB79124A1B012D
:1046840013441B681A687B88936318E0FB790E4A0D
:104694001B01134408331B68082B08D1FB790A4A11
:1046A4001B0113441B681A687B88D36307E0FB79FA
:1046B400054A1B0113441B681A687B88136400BFF6
:1046C4000C37BD4680BC70470C00002080B584B018
:1046D40000AFF860B9603B601346FB80FB683A6842
:1046E4001A60B868FBF7DAFF03469AB2FB689A814E
:1046F400FB68FA88DA81FB68BA691A61FB68FA69AF
:104704005A61FB683A6A9A61FB684FF00002DA6109
:10471400FB684FF000021A62FB684FF000025A6215
:10472400FB684FF000029A6000BF1037BD4680BDA1
:1047340080B485B000AFF860B9607A603B60FB6814
:10474400BA681A61FB687A685A61FB683A689A61C8
:1047540000BF1437BD4680BC7047B0B582B000AF0F
:10476400786039607B683A685A607B681A687B684D
:104774005B6819461046FBF7EBFD03461A467B6857
:10478400DA617B685A6A7B68DB6919461046FBF775
:10479400E1FD03461A467B685A627B685C6A7B6863
:1047A400DB891846FBF78AFE034619462046FBF7C9
:1047B40045FF0346002B07D07B68DB891846FBF7CF
:1047C40079FE02467B685A627B685C6A7B68DB8997
:1047D4005B421846FBF772FE034619462046FBF778
:1047E4000FFF0346002B08D07B68DB895B42184629
:1047F400FBF764FE02467B685A627B681A697B6831
:10480400DB6919461046FBF7EBFC03461C467B6844
:104814005A697B685B6A19461046FBF7E1FC03465C
:1048240019462046FBF796FD03461D467B689C69A6
:104834007B68DA697B681B6A19461046FBF788FDBA
:10484400034619462046FBF7CBFC03461946284687
:10485400FBF780FD03461A467B689A607B68DA6939
:104864007B681A627B689C687B689B891846FBF7A7
:1048740025FE034619462046FBF7E0FE0346002BBF
:1048840007D07B689B891846FBF714FE02467B68B9
:104894009A607B689C687B689B895B421846FBF73F
:1048A4000DFE034619462046FBF7AAFE0346002BDD
:1048B40008D07B689B895B421846FBF7FFFD0246E4
:1048C4007B689A607B689B6818460837BD46B0BD14
:1048D40080B483B000AF78607B68064A9A627B68D4
:1048E400054ADA627B68054A1A6300BF0C37BD4685
:1048F40080BC7047D1460008354700085F47000870
:1049040090B589B004AF0346FB801948FFF7E0FF78
:10491400174B9C6AB7F906301846FBF7CFFD0346E0
:104924004FF000020292134A0192134A00920022AD
:1049340012490F48A0470120FFF706FDF8600C4B11
:104944001B6BF9680A48984701233B72084B9B6824
:104954001846FBF77DFE03461BB27B8107F1080373
:104964001846FFF76BFD00BF1437BD4690BD00BF6E
:10497400B4020020CDCCCC3D9A99893F00007A4402
:1049840090B589B004AF0346FB801948FFF7A0FF38
:10499400174B9C6AB7F906301846FBF78FFD0346A0
:1049A4004FF000020292134A0192134A009200222D
:1049B40012490F48A0470220FFF7C6FCF8600C4BD1
:1049C4001B6BF9680A48984702233B72084B9B68A3
:1049D4001846FBF73DFE03461BB27B8107F1080333
:1049E4001846FFF72BFD00BF1437BD4690BD00BF2E
:1049F400B4020020CDCCCC3D9A99893F00007A4482
:104A040090B589B004AF0346FB801948FFF760FFF7
:104A1400174B9C6AB7F906301846FBF74FFD03465F
:104A24004FF000020292134A0192134A00920022AC
:104A340012490F48A0470320FFF786FCF8600C4B8F
:104A44001B6BF9680A48984703233B72084B9B6821
:104A54001846FBF7FDFD03461BB27B8107F10803F3
:104A64001846FFF7EBFC00BF1437BD4690BD00BFEE
:104A7400B4020020CDCCCC3D9A99893F00007A4401
:104A840080B500AF0248FDF795FB00BF80BD00BFB5
:104A9400EC01002080B582B000AF78607B681B68B1
:104AA400194A93422CD1194B1B8B1A4652001344BA
:104AB4001A461201D31A9B005B429BB21BB21846E2
:104AC400FFF71EFF114B5B8B1A46520013441A4624
:104AD4001201D31A9B005B429BB21BB21846FFF72C
:104AE4004FFF0A4B9B8B1A46520013441A4612017D
:104AF400D31A9B005B429BB21BB21846FFF780FFA0
:104B040000BF0837BD4680BD001000407C02002075
:104B140080B582B000AF254B3B60A82200213868E5
:104B2400FBF7FCFD3B6803221A613B6803225A61D0
:104B34003B681F4A9A613B681E4ADA613B684FF43E
:104B440080621A623B6800229A623B6800225A62C1
:104B54003B680022DA623B68154A1A663B68164ACB
:104B64005A663B6810229A663B6800221A673B68C3
:104B74000022DA663B6800225A6700237B600CE05F
:104B84007B68C3F10F030D4AD15C3A687B68134418
:104B94000A461A707B6801337B607B680F2BEFD960
:104BA40000BF00BF0837BD4680BD00BFE80200203B
:104BB400F055000890030020900700204C56000890
:104BC40080B58AB000AFF860B9607A6000233B62B8
:104BD400FB68DB68FB61FB681B69BB61BA69FB6945
:104BE4009A4205D9BA69FB69D31A013B7B6207E093
:104BF400FB689A68B969FB69CB1A1344013B7B6271
:104C0400FB689A68FB69D31A7A6A934228BF1346F1
:104C14007B627A6A7B68934228BF13467B62FB6897
:104C24005A68FB6913447B617A6AB968786900F051
:104C3400BFFC3A6A7B6A13443B62BA687B6A1344DA
:104C4400BB607A687B6AD31A7B60FA697B6A134417
:104C5400FB61FB689B68FA699A4201D10023FB61FE
:104C6400FB68FA69DA607B68002BB4D13B6A1846AA
:104C74002837BD4680BD80B588B000AFF860B96004
:104C84007A60FB68DB68FB61FB689A68FB69D31A8E
:104C9400BB61BA697B689A420FD9FB685A68FB69A1
:104CA40013443B617A68B968386900F081FCFA6999
:104CB4007B681A44FB68DA601DE0BB697B61FB68B2
:104CC4005A68FB6913443B617A69B968386900F032
:104CD4006FFC7A68BB69D31A7B61FB685B683B61D4
:104CE400BA68BB6913447A691946386900F060FCF4
:104CF400FB687A69DA6000BF2037BD4680BD80B4A6
:104D040087B000AF78607B681B693B617B68DB68B8
:104D1400FB603A69FB689A4208D87B689A68FB682A
:104D2400D21A3B691344013B7B6104E03A69FB6896
:104D3400D31A013B7B617B6918461C37BD4680BC96
:104D44007047000080B588B000AFF860B9607A6041
:104D5400BB68BB61FB685A1C13465B001344DB0051
:104D64001F4A13447B617B695B69022B29D0022BA8
:104D74002ED8002B02D0012B13D029E07869FFF73D
:104D8400BEFF38613A697B689A4202D20023FB6114
:104D940021E07B68FB617A68B9697869FFF76BFF8A
:104DA40019E07869FFF7ABFF38617A683B69934291
:104DB40028BF1346FB61FA69B9697869FFF75BFF9D
:104DC40009E07A68B9697869FFF7FAFEF86102E0E8
:104DD4000023FB6100BFFB6918462037BD4680BD38
:104DE400E802002080B588B000AFF860B9607A604E
:104DF4000E4BFB61FB691B78DBB2532B01D0FFF731
:104E040087FEEFF311834FF0200181F31188BB611A
:104E14007A68B968F868FFF795FF7861BB6983F32E
:104E240011887B6918462037BD4680BDE802002002
:104E340080B500AFFFF76CFE00BF80BD80B584B0C5
:104E440000AF78600B46FB707B689B68FB60FB6877
:104E54005A1C7B685B689A420ED87B681A68FB68A8
:104E64001344FA781A70FB685A1C7B689A607B6852
:104E7400DB685A1C7B68DA607B689A687B685B68CD
:104E84009A4215D17B6818697B6819687B689B68AE
:104E94001A46FFF7A7FF02467B689B689A4204D034
:104EA4007B684FF0FF32DA6002E07B6800229A6090
:104EB40000BF1037BD4680BD80B58AB000AFF86032
:104EC400B9607A603B60BB683B6201237B6201236B
:104ED400FB6107E03A6A7B68B2FBF3F33B62FB6970
:104EE4000133FB613A6A7B689A42F3D23A68FB6900
:104EF4009A4201D93B68FB617B6B03F00103002BF1
:104F040025D13B6B002B22D07B6B03F00203002BDB
:104F140005D03B68002B02D13023FB7601E020232F
:104F2400FB760BE03B6B013B3B63FB7E1946F86869
:104F3400FFF784FFFB68DB68002B07DB3B6B002B70
:104F440005D0FA693B6B9A42ECD300E000BFFB68E2
:104F5400DB68002B55DB3B68012B03D93B68013B25
:104F64003B6009E0BA687B6AB2FBF3F37B617A6960
:104F74007B689A4200D205E07B6A7A6802FB03F3FD
:104F84007B62E8E7BA687B6AB2FBF3F37B617B6917
:104F94007A6A02FB03F3BA68D31ABB601B4A7B69C3
:104FA40013441B781946F868FFF748FFFB68DB6871
:104FB400002B08DB7A6A7B68B2FBF3F37B627B6AC3
:104FC400002BDFD100E000BF7B6B03F00103002B5B
:104FD40017D03B6B002B14D00AE03B6B013B3B63C7
:104FE4002021F868FFF72AFFFB68DB68002B07DB4A
:104FF4003B6B002B05D0FA693B6B9A42EDD300E082
:1050040000BF00BF2837BD4680BD00BF6056000802
:1050140080B588B002AFF860B9607A603B60BB6865
:10502400002BB8BF5B423B6101237B6107E07B68D7
:105034003A6992FBF3F33B617B6901337B617B68E3
:105044003A699A42F3DA3A687B699A4201D93B6831
:105054007B613B6A002B0AD0BB68002B04DB7B6AB4
:1050640003F00403002B02D03B6A013B3B627B6AE2
:1050740003F00203002B02D03B68002B1CD07B6A98
:1050840003F00103002B17D13B6A002B14D00AE074
:105094003B6A013B3B622021F868FFF7CFFEFB68C7
:1050A400DB68002B07DB3B6A002B05D07A693B6A7F
:1050B4009A42EDD300E000BFFB68DB68002B4ADBBB
:1050C400BB68002B07DABB685B42BB602D21F86824
:1050D400FFF7B4FE08E07B6A03F00403002B03D05F
:1050E4002B21F868FFF7AAFEFB68DB68002B32DB94
:1050F4007B6A03F00203002B1FD07B6A03F00103D9
:10510400002B1AD13B68002B17D13B6A002B14D01B
:105114000AE03B6A013B3B623021F868FFF78EFEF0
:10512400FB68DB68002B07DB3B6A002B05D07A6940
:105134003B6A9A42EDD300E000BFFB68DB68002BBA
:1051440009DBB9687B6A01933B6A00933B687A6820
:10515400F868FFF7B1FE00BF1837BD4680BD0000F8
:1051640080B5A4B002AFF860B9607A6007F11403A7
:105174007B654023BB650023FB65FB687B660023DE
:105184003B66BB681B7887F88730BB680133BB601C
:1051940097F88730002B00F0D98197F88730252BBA
:1051A40040F0C78100237B670123C7F88030BB68C8
:1051B4001B7887F8873097F88730233B0D2B3FD82F
:1051C40001A252F823F000BF3552000845520008EE
:1051D400455200084552000845520008455200084F
:1051E400455200084552000825520008455200085F
:1051F400055200084552000845520008155200089F
:105204007B6F43F001037B67BB680133BB601BE02A
:105214007B6F43F002037B67BB680133BB6013E021
:105224007B6F43F004037B67BB680133BB600BE017
:105234007B6F43F008037B67BB680133BB6003E00B
:105244000023C7F8803000BFD7F88030002BAED1E0
:1052540000233B67BB681B7887F8873097F8873053
:105264002F2B12D997F88730392B0ED8BB6801330E
:10527400BB603A6F13469B0013445B001A4697F8D1
:1052840087301344303B3B67E4E7002387F87F30E3
:105294000023BB67BB681B7887F8873097F8873093
:1052A4002E2B32D1BB680133BB60BB681B782A2B21
:1052B4000DD1BB680133BB60012387F87F307B6865
:1052C4001B68191D7A6811601B68BB671DE0BB6809
:1052D4001B7887F8873097F887302F2B15D997F8E4
:1052E4008730392B11D8012387F87F30BB6801330D
:1052F400BB60BA6F13469B0013445B001A4697F8D1
:1053040087301344303BBB67E1E7BB681B7887F801
:10531400873097F887306C2B03D097F88730682B49
:1053240007D1BB680133BB60BB681B7887F8873043
:10533400EFE797F88730252B00F0EF80252BC0F29C
:10534400F380782B00F3F080582BC0F2ED80583BAB
:10535400202B00F2E98001A252F823F063540008E4
:105364002D5500082D5500082D5500082D55000811
:105374002D5500082D5500082D5500082D55000801
:105384002D5500082D550008E55300080F5400085A
:105394002D5500082D5500082D5500082D550008E1
:1053A4002D5500082D5500082D5500082D550008D1
:1053B4002D5500082D5500082D550008F5540008FA
:1053C4002D5500082D5500088D5400082D55000852
:1053D400395400082D5500082D5500086354000861
:1053E4007B681B68191D7A6811601B68C7F88030D8
:1053F400D7F8803087F86B3097F86B2007F15403A7
:1054040011461846FFF71AFD8FE07B681B68191DCB
:105414007A6811601B68C7F8803007F154007B6F0D
:1054240001933B6F0093BB6F0A22D7F88010FFF7FC
:10543400EFFD7AE07B681B68191D7A6811601B68B0
:10544400C7F88030D7F8801007F154007B6F0193C0
:105454003B6F0093BB6F0A22FFF72EFD65E07B686C
:105464001B68191D7A6811601B68C7F88030D7F86B
:10547400801007F154007B6F01933B6F0093BB6F67
:105484001022FFF719FD50E07B681B68191D7A682C
:1054940011601B68FB66FB6E002B04D1374BFB6667
:1054A400002387F87F30FB6E1B7887F88730FB6E0C
:1054B4000133FB6697F88730002B15D097F87F30BF
:1054C400002B02D0BB6F002B10D097F8872007F178
:1054D400540311461846FFF7B1FCBB6F013BBB6791
:1054E4003B6E002BDFDA20E000BF1EE000BF1CE0B3
:1054F4007B681B68191D7A6811601B68C7F88030C7
:10550400D7F8801007F15400002301930823009377
:1055140008231022FFF7D0FC07E007F154032521EC
:105524001846FFF78BFC00E000BFBB680133BB608B
:1055340007E097F8872007F1540311461846FFF750
:105544007DFC3B6E002BBFF61CAE00E000BF3B6E43
:10555400002B0DDDFB6D002B06D0FA6D07F1140353
:105564001946F868FFF73EFC3B6EFA6D13443B6640
:105574003B6E18468837BD4680BD00BFFC55000809
:105584000EB480B585B000AF786007F12003BB602E
:1055940007F108031A46F9697868FFF7E1FDF86036
:1055A400FB6818461437BD46BDE8804003B0704719
:1055B4000A44914200F1FF3300D1704710B511F84D
:1055C400014B914203F8014FF9D110BDF8B500BF6A
:1055D400F8BC08BC9E467047F8B500BFF8BC08BCD0
:0455E4009E46704728
:1055E8003636360D0A0000005465726D696E616CBE
:1055F80000000000284E554C4C2900000000000017
:10560800000000000102030406070809020304055C
:10561800060708090A0B0C0D0E0F101001020000F6
:10562800840000200000000004000000CC000020DE
:105638000000000004000000140100200000000029
:10564800040000000000000000005454522052459D
:105658004747455300000000303132333435363780
:08566800383941424344454634
:045670000507000822
:04567400E106000843
:1056780000127A001000000001000000340200202F
:10568800000000000400000000000000A401002049
:105698000000000004000000000000005C01002081
:0C56A800000000000400000000000000F2
:04000005080040416E
:00000001FF
